{
  "transactions": [
    {
      "hash": "0x775582a873ec47145f1ae9693b7e8f78b1ccebce483bd7ab53532aa9e25818a5",
      "transactionType": "CALL",
      "contractName": "LinkToken",
      "contractAddress": "0x779877A7B0D9E8603169DdbD7836e478b4624789",
      "function": "transferAndCall(address,uint256,bytes):(bool)",
      "arguments": [
        "0x8103B0A8A00be2DDC778e6e7eaa21791Cd364625",
        "3000000000000000000",
        "0x000000000000000000000000000000000000000000000000000000000000131e"
      ],
      "transaction": {
        "type": "0x02",
        "from": "0x865785714d551dd2c5865d1cfb31501825f6a4ce",
        "to": "0x779877a7b0d9e8603169ddbd7836e478b4624789",
        "gas": "0x13fbe",
        "value": "0x0",
        "data": "0x4000aea00000000000000000000000008103b0a8a00be2ddc778e6e7eaa21791cd36462500000000000000000000000000000000000000000000000029a2241af62c000000000000000000000000000000000000000000000000000000000000000000600000000000000000000000000000000000000000000000000000000000000020000000000000000000000000000000000000000000000000000000000000131e",
        "nonce": "0x15",
        "accessList": []
      },
      "additionalContracts": [],
      "isFixedGasLimit": false
    }
  ],
  "receipts": [
    {
      "transactionHash": "0x775582a873ec47145f1ae9693b7e8f78b1ccebce483bd7ab53532aa9e25818a5",
      "transactionIndex": "0x3",
      "blockHash": "0xb8afc202752648783e49783ba2c1f700a529e83999136193156ce3ea80b77b45",
      "blockNumber": "0x3ff072",
      "from": "0x865785714D551DD2c5865d1cfB31501825F6A4Ce",
      "to": "0x779877A7B0D9E8603169DdbD7836e478b4624789",
      "cumulativeGasUsed": "0x54a77",
      "gasUsed": "0xe77e",
      "contractAddress": null,
      "logs": [
        {
          "address": "0x779877A7B0D9E8603169DdbD7836e478b4624789",
          "topics": [
            "0xddf252ad1be2c89b69c2b068fc378daa952ba7f163c4a11628f55a4df523b3ef",
            "0x000000000000000000000000865785714d551dd2c5865d1cfb31501825f6a4ce",
            "0x0000000000000000000000008103b0a8a00be2ddc778e6e7eaa21791cd364625"
          ],
          "data": "0x00000000000000000000000000000000000000000000000029a2241af62c0000",
          "blockHash": "0xb8afc202752648783e49783ba2c1f700a529e83999136193156ce3ea80b77b45",
          "blockNumber": "0x3ff072",
          "transactionHash": "0x775582a873ec47145f1ae9693b7e8f78b1ccebce483bd7ab53532aa9e25818a5",
          "transactionIndex": "0x3",
          "logIndex": "0x1",
          "removed": false
        },
        {
          "address": "0x779877A7B0D9E8603169DdbD7836e478b4624789",
          "topics": [
            "0xe19260aff97b920c7df27010903aeb9c8d2be5d310a2c67824cf3f15396e4c16",
            "0x000000000000000000000000865785714d551dd2c5865d1cfb31501825f6a4ce",
            "0x0000000000000000000000008103b0a8a00be2ddc778e6e7eaa21791cd364625"
          ],
          "data": "0x00000000000000000000000000000000000000000000000029a2241af62c000000000000000000000000000000000000000000000000000000000000000000400000000000000000000000000000000000000000000000000000000000000020000000000000000000000000000000000000000000000000000000000000131e",
          "blockHash": "0xb8afc202752648783e49783ba2c1f700a529e83999136193156ce3ea80b77b45",
          "blockNumber": "0x3ff072",
          "transactionHash": "0x775582a873ec47145f1ae9693b7e8f78b1ccebce483bd7ab53532aa9e25818a5",
          "transactionIndex": "0x3",
          "logIndex": "0x2",
          "removed": false
        },
        {
          "address": "0x8103B0A8A00be2DDC778e6e7eaa21791Cd364625",
          "topics": [
            "0xd39ec07f4e209f627a4c427971473820dc129761ba28de8906bd56f57101d4f8",
            "0x000000000000000000000000000000000000000000000000000000000000131e"
          ],
          "data": "0x0000000000000000000000000000000000000000000000007ce66c50e2840000000000000000000000000000000000000000000000000000a688906bd8b00000",
          "blockHash": "0xb8afc202752648783e49783ba2c1f700a529e83999136193156ce3ea80b77b45",
          "blockNumber": "0x3ff072",
          "transactionHash": "0x775582a873ec47145f1ae9693b7e8f78b1ccebce483bd7ab53532aa9e25818a5",
          "transactionIndex": "0x3",
          "logIndex": "0x3",
          "removed": false
        }
      ],
      "status": "0x1",
      "logsBloom": "0x0000001400000000000000000000000000000000000000020000000002000000000000000000800000000000000000000000000000000000000000000000000000000000000000000000000800000000000000040000000000002000000000000000000000000000000000002000040000000000400000000000001000000000000000800c000020000000000000800010000020000000000000000000000000000000000000000000000000000000000000000000000000000400000000000000000002000000000000010000000000000000000000000100000000000000000000000000000000000000000000000000000000000000000000000000000040",
      "type": "0x2",
      "effectiveGasPrice": "0xbaffe6b0"
    }
  ],
  "libraries": [],
  "pending": [],
  "returns": {},
  "timestamp": 1693389053,
  "chain": 11155111,
  "multi": false,
  "commit": "df2208c"
}