{
  "transactions": [
    {
      "hash": "0x3a0bc937e818690ac1117c7320a874a03ea57074f5284af53901b43140ba7510",
      "transactionType": "CALL",
      "contractName": "LinkToken",
      "contractAddress": "0x779877A7B0D9E8603169DdbD7836e478b4624789",
      "function": "transferAndCall(address,uint256,bytes):(bool)",
      "arguments": [
        "0x8103B0A8A00be2DDC778e6e7eaa21791Cd364625",
        "3000000000000000000",
        "0x000000000000000000000000000000000000000000000000000000000000131e"
      ],
      "transaction": {
        "type": "0x02",
        "from": "0x865785714d551dd2c5865d1cfb31501825f6a4ce",
        "to": "0x779877a7b0d9e8603169ddbd7836e478b4624789",
        "gas": "0x1b43f",
        "value": "0x0",
        "data": "0x4000aea00000000000000000000000008103b0a8a00be2ddc778e6e7eaa21791cd36462500000000000000000000000000000000000000000000000029a2241af62c000000000000000000000000000000000000000000000000000000000000000000600000000000000000000000000000000000000000000000000000000000000020000000000000000000000000000000000000000000000000000000000000131e",
        "nonce": "0x12",
        "accessList": []
      },
      "additionalContracts": [],
      "isFixedGasLimit": false
    }
  ],
  "receipts": [],
  "libraries": [],
  "pending": [
    "0x3a0bc937e818690ac1117c7320a874a03ea57074f5284af53901b43140ba7510"
  ],
  "returns": {},
  "timestamp": 1693388803,
  "chain": 11155111,
  "multi": false,
  "commit": "df2208c"
}